:100000000C946B000C9488000C9488000C9488006D
:100010000C9488000C9488000C9488000C943D0784
:100020000C9488000C9488000C9488000C94880030
:100030000C9488000C9488000C9488000C94880020
:100040000C9488000C9488000C9488000C94880010
:100050000C94880007634236B79BD8A71A396856B4
:1000600018AEBAAB558C1D3CB7CC5763BD6DEDFDDA
:10007000753EF6177231BF000000803F0800000097
:10008000BE922449123EABAAAA2ABECDCCCC4C3E8D
:1000900000000080BEABAAAAAA3E00000000BF007C
:1000A0000000803F0000000000084178D3BB438778
:1000B000D1133D190E3CC3BD4282AD2B3E68EC828C
:1000C00076BED98FE1A93E4C80EFFFBE01C4FF7F11
:1000D0003F000000000011241FBECFE5D8E0DEBFC6
:1000E000CDBF10E0A0E6B0E0EAE5FDE202C0059079
:1000F0000D92A83DB107D9F717E0A8EDB0E001C017
:100100001D92A938B107E1F70E948E0B0C94AB1633
:100110000C940000AF92BF92CF92DF92EF92FF92C9
:100120000F931F93CF93DF937C01042F8AE190E01C
:100130000E94D503C82EE6016E01D92EE601209754
:1001400009F458C08091D8009091D900009711F51A
:10015000D092D900C092D8000F2EFEEECF2EF0E044
:10016000DF2EF02DC6010E946A050F2EF7EFAF2E8D
:10017000F0E0BF2EF02DC5010E946A058AED90E0E7
:100180000E946A05D092EB00C092EA00B092ED00A6
:10019000A092EC00198E188E8FEF8E8B0F8BFE01C4
:1001A000E192F1928F01CF010E947805CE010C9669
:1001B0000E947805D987C887DB8BCA8B86E09FEFC2
:1001C0009D878C878E899091E300981710F4809317
:1001D000E30090E09C01220F331F220F331F220FF8
:1001E000331F820F931F8C519F4FB8010E947C05D3
:1001F00081E001C08FEFDF91CF911F910F91FF90B0
:10020000EF90DF90CF90BF90AF9008950F931F9322
:10021000CF93DF938B01C091E800D091E900C80F24
:10022000D91F8091D8009091D90002960E94E205D2
:100230006091D8007091D900FB01D383C283809173
:10024000E8009091E900C817D90748F46E5F7F4F26
:100250008091EC009091ED000E94A30508C06E5FB4
:100260007F4F8091EA009091EB000E94A305011559
:10027000110549F06091D8007091D900645F7F4FFB
:10028000C8010E94A305DF91CF911F910F9108959E
:10029000CF92DF92EF92FF920F931F93CF93DF9352
:1002A0008091DA008823B9F10F2EFFEDEF2EF0E0F8
:1002B000FF2EF02D0F2EFAEDCF2EF0E0DF2EF02DD9
:1002C000F894D701ED91FC91C681D781CE010C96AF
:1002D0000E94E20578948E010E5F1F4FC8010E94B4
:1002E000E2058E899091E300981710F48093E30063
:1002F00090E09C01220F331F220F331F220F331F68
:10030000820F931F8C519F4FB8010E947C05F6010C
:1003100080818823A9F60E94E40F2091E4003091A7
:10032000E500821B930B9093E7008093E60074C076
:100330002091E8003091E9002F5F3F4F3093E900B2
:100340002093E80001979093E7008093E600211541
:10035000310581F48091EA009091EB002091EC004E
:100360003091ED003093EB002093EA009093ED0084
:100370008093EC00E091EA00F091EB00808188230B
:1003800009F44AC00580F681E02DC681D78120910D
:10039000E8003091E9008A819B812817390778F4B9
:1003A0003BC00580F681E02DC681D7812A813B8143
:1003B0008091E8009091E9008217930768F1F89422
:1003C0008E010E5F1F4FC8010E94E2058C899D8936
:1003D000009721F0CE010C960E94E20578948E8958
:1003E0009091E300981710F48093E30090E09C0153
:1003F000220F331F220F331F220F331F820F931F31
:100400008C519F4FB8010E947C05E091EA00F09169
:10041000EB008081882329F68091E6009091E70027
:10042000009709F085CF8091E8009091E9009093C2
:10043000E5008093E4004091E300842F90E0FC010C
:10044000EE0FFF1FEE0FFF1FEE0FFF1FE80FF91F4C
:10045000EC51FF4F20812223E9F4442331F455C0AD
:10046000442329F44093E30050C024EE30E041508F
:10047000842F90E0FC01EE0FFF1FEE0FFF1FEE0F29
:10048000FF1FE80FF91FE20FF31F5081552341F3BF
:100490004093E3009C01220F331F220F331F220FD2
:1004A000331F280F391FD901AC51BF4F1196ED9161
:1004B000FC9112970280F381E02D1296FC93EE934B
:1004C000119729513F4FE217F30791F422813381AD
:1004D000AC01440F551F440F551F440F551F840F87
:1004E000951FDC01AC51BF4F12963C932E93119790
:1004F000A681B781B093D900A093D800ED91FC916B
:100500001197CD0157966C910995DF91CF911F916D
:100510000F91FF90EF90DF90CF9008950F931F936E
:10052000CF93DF93DC011596ED91FC911697068130
:100530001781E8012C96CE010E94E2058AED90E039
:10054000BE010E947C05E091D800F091D90081E0C5
:10055000D80156962C9156979689291708F480E071
:10056000DF91CF911F910F9108958EED8ABB8FEF90
:1005700087BB84BB81BB08958830E8F4613069F49F
:100580004BB321E030E0B90102C0660F771F8A95B6
:10059000E2F7CB01842B8BBB08954BB321E030E015
:1005A000B90102C0660F771F8A95E2F7CB018095EB
:1005B00084238BBB0895803110F5613081F468B3DA
:1005C000282F30E02850304041E050E0CA0102C0FE
:1005D000880F991F2A95E2F7862B88BB089548B3A8
:1005E00090E0089721E030E0B90102C0660F771F64
:1005F0008A95E2F7CB018095842388BB08958831E2
:1006000010F5613081F465B3282F30E0205130407F
:1006100041E050E0CA0102C0880F991F2A95E2F715
:10062000862B85BB089545B390E0409721E030E0EC
:10063000B90102C0660F771F8A95E2F7CB0180955A
:10064000842385BB0895803208F5613081F462B35C
:10065000282F30E02851304041E050E0CA0102C06C
:10066000880F991F2A95E2F7862B82BB089542B323
:1006700090E0489721E030E0B90102C0660F771F93
:100680008A95E2F7CB018095842382BB0895882365
:1006900011F46BBB0895813011F468BB089582306A
:1006A00011F465BB0895833009F462BB0895882373
:1006B00011F46ABB0895813011F467BB089582304C
:1006C00011F464BB0895833009F461BB0895883048
:1006D00058F429B330E0A90102C0559547958A9591
:1006E000E2F7CA0181700895803168F426B330E0E2
:1006F00090E00897A90102C0559547958A95E2F7C1
:10070000CA0181700895883168F423B330E090E025
:100710004097A90102C0559547958A95E2F7CA010D
:1007200081700895803268F420B330E090E04897FB
:10073000A90102C0559547958A95E2F7CA018170D3
:10074000089580E00895882351F429B330E0C90169
:1007500002C0959587956A95E2F78170089581307A
:1007600051F426B330E0C90102C0959587956A958A
:10077000E2F781700895823051F423B330E0C9016B
:1007800002C0959587956A95E2F781700895833048
:1007900051F420B330E0C90102C0959587956A9560
:1007A000E2F78170089580E00895EF92FF920F9331
:1007B0001F93CF93DF938C010E94DE0FC091000145
:1007C000D09101010C0F1D1F25E00C3D120750F4C4
:1007D000C017D10750F4CE5FDE4F10930101009394
:1007E000000105C0C0E0D0E002C0C0E0D0E00E943F
:1007F000C0107E018C2F9F2DDF91CF911F910F9103
:10080000FF90EF9008950895109201011092000159
:10081000089580910001909101012CED35E0281B95
:10082000390B822F932F0895863041F1873070F471
:100830008330F1F0843028F48130C1F0823061F5EA
:100840002DC08430B9F0853039F516C08930E1F01B
:100850008A3028F48730A1F08830F1F413C08B304F
:10086000B9F08B3098F08C30B9F414C081E308955E
:1008700083E3089584E3089585E3089586E3089566
:1008800087E3089588E3089589E308958AE2089547
:1008900080E3089583E208958FEF089582E3089539
:1008A000883081F1893080F4843021F1853038F44A
:1008B0008230E1F18330E0F48130B1F517C0863049
:1008C000E9F08730E8F418C08C3021F18D3028F43D
:1008D0008A30E1F08B30E0F417C08E30F9F08E30C2
:1008E000D8F08F30E9F08031F9F41CC087E3089527
:1008F00089E3089585E2089584E3089585E30895E2
:1009000086E308958AE2089581E3089582E30895D5
:1009100083E308958DE208958DE0089580E30895BE
:100920008DE308958BE208958FEF089588E308958D
:10093000BF92CF92DF92EF92FF920F931F93CF93CC
:10094000DF9300E010E0CC24DD246894C4F8EE24AA
:10095000B02EE601002E02C0CC0FDD1F0A94E2F794
:1009600083E06C2F0E945703CE018095682F83E0AF
:100970000E944703FE2C83E06F2D0E94A30388236F
:1009800041F48B2D8F5FFF0CFF0C8F0D0E945004E4
:100990000AC0F3949F2D943071F70F5F1F4F0430FE
:1009A0001105B1F68FEFDF91CF911F910F91FF905D
:1009B000EF90DF90CF90BF900895C29889EF90E0BC
:1009C0000197F1F700C00000C29A8BED95E0019706
:1009D000F1F700C0000008951F93182FC098C19828
:1009E00088B38F7088BB88B3912F907F892B88BB89
:1009F0000E94DD0488B38F7088BB88B31295107F86
:100A0000182B18BB0E94DD041F9108958FEF87BB40
:100A100084E088BB83E30E94EC0482E30E94EC0440
:100A200088E20E94EC048CE00E94EC0408951F937D
:100A3000182FC09AC19888B38F7088BB88B3912F44
:100A4000907F892B88BB0E94DD0488B38F7088BBA0
:100A500088B31295107F182B18BB0E94DD041F91DC
:100A60000895813051F0813028F0823049F0833090
:100A700069F409C0862F80580AC0862F805407C0A9
:100A8000862F805804C0862F805801C080E80E94BD
:100A9000EC04089581E00E94EC040895CF93DF9365
:100AA000EC018881882331F021960E9417058991F5
:100AB0008823D9F7DF91CF910895CF93DF93EC018D
:100AC000862F642F0E943105CE010E944E05DF91D2
:100AD000CF910895FC010396928381832FEF3FEF1E
:100AE0003483238396838583908787831082089538
:100AF000FC01118610860895CF93DF93FC01DB0182
:100B000021813281E9018A819B8113969C938E9386
:100B100012978181928115969C938E9314978A8166
:100B20009B81EC017D836C83E9017B836A83728303
:100B300061831996FC93EE93189780818F5F808371
:100B4000DF91CF910895CF93DF93FC01DB012D91CD
:100B50003C911197BFEF2F3F3B0719F4A781B08558
:100B600018C0DC0113961296CD91DC911397888101
:100B700099812817390768F012960D90BC91A02D25
:100B80001296CD91DC9113978881998128173907A6
:100B900098F712968D919C911397EB019B838A8312
:100BA000EC017D836C83EB01BD83AC8313967C9356
:100BB0006E931297F987E88780818F5F8083DF913A
:100BC000CF910895FC01A281B3818481958115960E
:100BD0009C938E931497A481B581828193811396FF
:100BE0009C938E931297A085B18511968D919C91BF
:100BF00012978E179F0731F48481958112969C93EA
:100C00008E931197118610868C9181508C93089544
:100C100021E1FC01208392E2929383E38293629329
:100C20007293129280E88293129282E0829383E020
:100C3000829384E0829385E0829386E0829387E0CA
:100C4000829388E0829389E0829380E18293229369
:100C500082E1829383E1829384E1829385E18293AE
:100C600086E1829387E1829388E1829389E182938E
:100C700080E2829381E28293929383E28293429311
:100C8000529386E2829387E2829388E2829389E29A
:100C9000829380E3829381E382939F0121503040CD
:100CA000822F932F08951BBC89E88ABD8BE08EBDEF
:100CB00089B7806189BFA091E806B091E906CD911E
:100CC000CDBFDD91DEBFFF91EF91DF91CF91BF915D
:100CD000AF919F918F917F916F915F914F913F91D4
:100CE0002F911F910F91FF90EF90DF90CF90BF90C9
:100CF000AF909F908F907F906F905F904F903F90BC
:100D00002F901F900F900FBE0F90089581E00895CF
:100D100008950F920FB6F8940F921F9211242F92FC
:100D20003F924F925F926F927F928F929F92AF927B
:100D3000BF92CF92DF92EF92FF920F931F932F9368
:100D40003F934F935F936F937F938F939F93AF9353
:100D5000BF93CF93DF93EF93FF93A091E806B091F9
:100D6000E9060DB60D920EB60D920E94FB11A091F0
:100D7000E806B091E906CD91CDBFDD91DEBFFF91D0
:100D8000EF91DF91CF91BF91AF919F918F917F9123
:100D90006F915F914F913F912F911F910F91FF9014
:100DA000EF90DF90CF90BF90AF909F908F907F900B
:100DB0006F905F904F903F902F901F900F900FBEBD
:100DC0000F9008950F920FB6F8940F921F9211246E
:100DD0002F923F924F925F926F927F928F929F924B
:100DE000AF92BF92CF92DF92EF92FF920F931F9339
:100DF0002F933F934F935F936F937F938F939F9323
:100E0000AF93BF93CF93DF93EF93FF93A091E80647
:100E1000B091E9060DB60D920EB60D920E94FA0F32
:100E20000E94FB11A091E806B091E906CD91CDBFDB
:100E3000DD91DEBFFF91EF91DF91CF91BF91AF9137
:100E40009F918F917F916F915F914F913F912F91E2
:100E50001F910F91FF90EF90DF90CF90BF90AF90D8
:100E60009F908F907F906F905F904F903F902F90CA
:100E70001F900F900FBE0F9008950E94E2061895E4
:100E8000CF93DF93FC01A081B1811097B9F0448D1D
:100E900026813781240F311D37832683C281D38178
:100EA0002C173D0710F0B783A68336812781862F44
:100EB000972F632F722F50E00E948C16DF91CF91F5
:100EC0000895CF93DF93EC012C8D2223A9F14423C5
:100ED000B9F48C819D81422F50E00E948C162C8D9C
:100EE0008C819D81820F911D9D838C832A813B8102
:100EF0008217930708F1888199819D838C831CC098
:100F00008E819F81422F50E00E948C162C8D30E004
:100F1000309521953F4F8E819F81820F931F9F8334
:100F20008E83488159818417950730F48A819B818B
:100F3000280F391F3F832E838A8D8F5F8A8FDF9121
:100F4000CF9108950F931F93CF93DF93EC010FB6CA
:100F5000F8940F928E8D1816BCF48989882329F491
:100F600013C08989882321F40FC08E010F5E1F4FA3
:100F7000C8010E948612882311F00E940D138E8DE5
:100F800081508E8F18166CF38FEF8E8F0F900FBEDF
:100F90000FB6F8940F928D8D1816BCF488858823AF
:100FA00029F413C08885882321F40FC08E01085FBF
:100FB0001F4FC8010E948612882311F00E940D1352
:100FC0008D8D81508D8F18166CF38FEF8D8F0F9054
:100FD0000FBEDF91CF911F910F9108958F929F9235
:100FE000AF92BF92CF92DF92EF92FF920F931F9337
:100FF000CF93DF93182F062F882309F449C08FE180
:1010000090E00E94D503E82EF92EE701209709F41D
:1010100042C0A12EBB24802E99248A9C60018B9C07
:10102000D00C9A9CD00C1124C60101960E94D503C5
:10103000282F392F398328832115310519F1C20E44
:10104000D31EDB82CA821A8E3D832C830894A108AA
:10105000B108A89CC001A99C900DB89C900D1124CA
:10106000280F391F3F832E831B8F0C8F8FEF8D8F9F
:101070008E8FCE0108960E946A05CE0141960E948D
:101080006A050BC0CE010E940304C0E0D0E005C099
:10109000C0E0D0E002C0C0E0D0E07E018C2F9F2DE8
:1010A000DF91CF911F910F91FF90EF90DF90CF9044
:1010B000BF90AF909F908F9008955F926F927F92B4
:1010C0008F929F92AF92BF92CF92DF92EF92FF9258
:1010D0000F931F93DF93CF9300D000D00F92CDB723
:1010E000DEB78C013B015D834C83522EDD247E01F3
:1010F0000894E11CF11CCC24C394AA24BB2468945A
:10110000A2F8AC0EBD1E88249924689483F8880E3A
:10111000991E0FB6F8940F92F801928D838D98174F
:10112000A8F4C801B301452D0E946107F801818927
:10113000882341F0C80141960E948612813011F443
:101140000E9489060F900FBE81E04EC08C819D8168
:10115000009721F40F900FBE80E046C0DD2021F4FF
:10116000C7010E94CC12DC2C0F900FBE0E94DE0F34
:101170000FB6F8940F92F801858D8F3F09F4158E04
:10118000F801868D8F3F09F4168E0F900FBEC701B0
:10119000B5010E94D712882309F50FB6F8940F9273
:1011A000F801928D0F900FBEF801838D981781F48E
:1011B0006C817D81C4010E946912C8010E94A2074E
:1011C0000E94C010882309F0A4CF0E948906A1CFF5
:1011D000C8010E94A2070E94C0109BCFC8010E94B4
:1011E000A2070E94C01080E00F900F900F900F9008
:1011F0000F90CF91DF911F910F91FF90EF90DF90B3
:10120000CF90BF90AF909F908F907F906F905F90A6
:1012100008950F931F93CF93DF93EC018A019A8D6A
:101220008B8D9817C0F4CE01422F0E9461078E8DDE
:101230008F3F69F48989882381F0CE0141960E940D
:101240008612882361F081E0F801808309C08F5FF6
:101250008E8F81E005C080E003C081E001C081E0A5
:10126000DF91CF911F910F9108955F926F927F92BE
:101270008F929F92AF92BF92CF92DF92EF92FF92A6
:101280000F931F93DF93CF9300D000D00F92CDB771
:10129000DEB78C013B015D834C83522EDD247E0141
:1012A0000894E11CF11CCC24C394AA24BB246894A8
:1012B000A2F8AC0EBD1E0F2EF1E18F2E9924F02D59
:1012C000880E991E0FB6F8940F92F801828D88232C
:1012D00051F1E680F780C801B3010E944007552014
:1012E00081F4F801828D8150828F80858823B9F046
:1012F000C80108960E948612813089F40E948906EE
:101300000EC0F801F782E6828189882341F0C80186
:1013100041960E948612882311F00E9489060F9040
:101320000FBE81E04CC08C819D81009721F40F900D
:101330000FBE80E044C0DD2021F4C7010E94CC1222
:10134000DC2C0F900FBE0E94DE0F0FB6F8940F92A8
:10135000F801858D8F3F09F4158EF801868D8F3F3A
:1013600009F4168E0F900FBEC701B5010E94D71267
:101370008823F9F40FB6F8940F92F801828D0F903C
:101380000FBE882381F46C817D81C4010E946912A3
:10139000C8010E94A2070E94C010882309F092CFC2
:1013A0000E9489068FCFC8010E94A2070E94C01028
:1013B00089CFC8010E94A2070E94C01080E00F9050
:1013C0000F900F900F900F90CF91DF911F910F9181
:1013D000FF90EF90DF90CF90BF90AF909F908F9055
:1013E0007F906F905F9008950F931F93CF93DF933B
:1013F000EC018A018A8D8823D1F0CE010E9440073A
:101400008A8D81508A8F8D8D8F3F69F488858823DE
:1014100081F0CE0108960E948612882361F081E057
:10142000F801808309C08F5F8D8F81E005C080E067
:1014300003C081E001C081E0DF91CF911F910F9146
:1014400008950FB6F8940F92FC01828D0F900FBE95
:101450000895FC01828D0895CF93DF93EC0188817C
:1014600099810E940304CE010E940304DF91CF9171
:101470000895FC01928D81E0911180E00895FC01B6
:10148000228D81E0938D291380E008950E949804B5
:101490008F3FE1F3809183079091840760E070E0D3
:1014A00040E050E020E00E945D08F0CF809183078B
:1014B0009091840760E070E04FEF5FEF20E00E94C2
:1014C0003509809183079091840760E070E04FEFC9
:1014D0005FEF20E00E94350980918707909188078F
:1014E0000E945F0F80918507909186070E945F0F91
:1014F00080914D0790914E070E945F0FE2CF0F93AE
:101500001F93DF93CF9300D0CDB7DEB70E94E40FD7
:101510009A8389838E010F5F1F4FC80169E170E0D4
:101520000E94B111FACF6F927F928F929F92AF92E9
:10153000BF92CF92DF92EF92FF920F931F93DF93B0
:10154000CF93CDB7DEB72A970FB6F894DEBF0FBEA4
:10155000CDBFDE011196EAE7F0E088E001900D9240
:101560008150E1F70E94E40F9A87898788249924A3
:101570000F2EF9E06F2E7724F02D6C0E7D1EEE24D9
:10158000FF245E010894A11CB11CC301C62CD92EF6
:1015900064E170E00E94B1118701C501B701A801A3
:1015A0000E945D058FE493EC0197F1F700C0000005
:1015B0000E944A050F5F1F4F0A30110571F70BE0BB
:1015C00010E0C501B701A8010E945D05AFE4B3ECCE
:1015D0001197F1F700C000000E944A050150104029
:1015E000BFEF0F3F1B0769F70894811C911C83E034
:1015F0008816910451F600E610E00F2EFEE6EF2E5D
:10160000F0E0FF2EF02D8C2D9D2D64E170E00E9406
:10161000B111C8010E944E05C70161E070E040E0D1
:1016200050E00E945D058FEF94E3ACE08150904064
:10163000A040E1F700C000000E944A058FE79AE150
:10164000A6E081509040A040E1F700C00000DBCF51
:101650002F923F924F925F926F927F928F929F92C2
:10166000AF92BF92CF92DF92EF92FF920F931F93B0
:10167000DF93CF9300D0CDB7DEB70E94E40F9A83FB
:101680008983882499243E010894611C711C11E00F
:101690000F2EF2E82F2EF0E03F2EF02D0F2EFBE460
:1016A0004F2EF7E05F2EF02D02C088249924C3014D
:1016B00064E670E00E94B1110894811C911C012F16
:1016C0008091E2068F3F09F400E00E949804002315
:1016D00061F7912F8F3F09F490E0992331F784E669
:1016E0008816910424F30E944A05C1010E944E0508
:1016F00088E1612F0E94BC0215BB8FE79AE06DE87C
:1017000070E044E650E020E030E0012F7201CC248C
:10171000DD24AA24BB240E943D0EC9CFAF92BF9204
:10172000CF92DF92EF92FF920F930E9406058FEF08
:101730008ABB9FE091BB91E094BB82BB8CEE9DE0A5
:1017400067E970E044E650E020E030E001E00F2E71
:10175000F1E7EF2EF7E0FF2EF02DCC24DD24AA24B4
:10176000BB240E943D0E83E99AE062EA70E044E601
:1017700050E020E030E00F2EF7E8EF2EF7E0FF2EEC
:10178000F02D0E943D0E86E59AE06DEA70E044E699
:1017900050E020E030E00F2EF5E8EF2EF7E0FF2ECE
:1017A000F02D0E943D0E86E49AE068EB70E044E67E
:1017B00050E020E030E00F2EFDE4EF2EF7E0FF2EAA
:1017C000F02D0E943D0E88E29BE063EC70E044E661
:1017D00050E020E030E00F2EFFE5EF2EF7E0FF2E87
:1017E000F02D0E943D0E81E060E00E94EE07909394
:1017F000840780938307009739F060E070E040E051
:1018000050E020E00E945D080E94AD0F80E090E073
:101810000F91FF90EF90DF90CF90BF90AF90089521
:101820008091DE069091DF069C012F5F3F4F309341
:10183000DF062093DE0623E0883E920781F48BB317
:1018400080958BBB8FEF94E3ACE081509040A0403B
:10185000E1F700C000001092DF061092DE06089546
:101860008091E2069091CE00891711F08093CE000E
:101870008D3011F40E944A050895CF92DF92EF92C5
:10188000FF920F931F93CF93DF937C01FB0130975F
:1018900019F120E030E0CAE0D0E02F5F3F4FCB01EC
:1018A000BE010E94651661157105B9F7690112162E
:1018B0001306ACF4E701C20FD31F87012AE030E022
:1018C000CF01B9010E946516E62FF72F805D8A933C
:1018D000C017D107A9F704C0CC24DD2401C06901D9
:1018E000EC0CFD1CF7011082DF91CF911F910F913D
:1018F000FF90EF90DF90CF9008952F923F924F92FC
:101900005F926F927F928F929F92AF92BF92CF928F
:10191000DF92EF92FF920F931F93CF93DF93E82F05
:10192000F92FDF010D900020E9F71197AE1BBF0BD7
:101930001D011A161B060CF047C02C014A0E5B1E37
:10194000CC24DD24C0E0D0E0F20162912F0170E0F0
:1019500060537040882777FD8095982F0E94A913C7
:101960003B014C01BE01882777FD8095982F0E948E
:10197000A9139B01AC0160E070E080E291E40E9459
:101980009814062F172FF82EE92EB601882777FD19
:101990008095982F0E94A9135B016C01C401B301CB
:1019A000202F312F4F2D5E2D0E9435149B01AC014D
:1019B000C601B5010E9412130E9476136B01219695
:1019C000C215D3050CF202C0CC24DD248C2D9D2D34
:1019D000DF91CF911F910F91FF90EF90DF90CF900B
:1019E000BF90AF909F908F907F906F905F904F903F
:1019F0003F902F900895CF93DF938091CF0088235D
:101A000081F0E1E6F7E0C3E7D7E0AFE4B7E0CF016C
:101A10004096119219921D92E817F907D1F710928A
:101A2000CF006091E2068091CE00681709F4D1C022
:101A30006093CE006F3F09F4CCC021E030E0653206
:101A400011F020E030E081E090E06A3211F080E0B7
:101A500090E0822B932B41E06B3209F040E021E0D3
:101A60006D3209F020E0422B50E0842B952B00973B
:101A700041F081E08093E6068093E3066093E406FC
:101A80001FC06D30E9F40E944A051092E5061092DD
:101A9000E6061092E4061092E1061092E006E1E6F6
:101AA000F7E0C3E7D7E0AFE4B7E0CF01409611928B
:101AB00019921D92E817F907D1F780E30E941705E4
:101AC0008091E206982F90539A3078F59091E6062F
:101AD000992379F40E9417058091E506E1E6F7E085
:101AE000E80FF11D9091E20690838F5F8093E506E9
:101AF0001CC09130D1F48091E306882331F010921C
:101B0000E5060E944A051092E3068091E2060E94D3
:101B100017058091E506EFE4F7E0E80FF11D9091DD
:101B2000E20690838F5F8093E5068091E2068D3315
:101B300009F04FC081E697E00E947D0CEC018FE434
:101B400097E00E947D0CBC018091E4068A32C1F0CE
:101B50008B3218F4853239F51FC08B3219F08D3273
:101B600011F507C06C0F7D1F7093E1066093E006CE
:101B70001AC0C61BD70BD093E106C093E00613C072
:101B80006C9FC0016D9F900D7C9F900D11249093D0
:101B9000E1068093E00607C0CE010E9465167093AF
:101BA000E1066093E006C3E7D7E06091E00670913C
:101BB000E106CE010E943D0C6091E0067091E106C5
:101BC00081E697E00E943D0C0E944A05CE010E94EA
:101BD0004E05DF91CF9108950F931F93DF93CF931D
:101BE00000D0CDB7DEB70E94E40F9A8389838E01BF
:101BF0000F5F1F4FC80164E170E00E94B1110E94A5
:101C000098048093E2060E94FB0CF4CFCF93DF93FD
:101C1000EC01E091E806F091E906938382838091DC
:101C2000EC069091ED06C817D90768F48091260755
:101C3000909127076091E8067091E9066E5F7F4FEB
:101C40000E94A30517C080912807909129076091F1
:101C5000E8067091E9066E5F7F4F0E94A3058091B0
:101C6000D5009091D600C817D90720F4D093D6009C
:101C7000C093D500DF91CF9108952F923F924F925C
:101C80005F926F927F928F929F92AF92BF92CF920C
:101C9000DF92EF92FF920F931F93CF93DF932C016C
:101CA0004B015A01390181E290E00E94D503282EB0
:101CB000E1011E01392EE101209709F4E5C0C114AC
:101CC000D10409F0F9C0C5010E94D503C82ED92E50
:101CD0008F8B988FC114D10429F4C1010E94030491
:101CE0008FEFD7C08C2D9D2D65EA70E04A2D5B2DBE
:101CF0000E9495160894A108B1088F89988DA80EA6
:101D0000B91ECE014996B40148E050E00E949C16ED
:101D100018A2102F053008F014E01E8BCC24DD240F
:101D20006894C1F8CC0EDD1EC6010E947805CE0174
:101D30000C960E947805D987C88785E090E0811BC2
:101D400091099D878C87DB8BCA8BC501B201A301EA
:101D50000E94080699838883E114F10419F0F701C1
:101D6000D183C0830FB6F8940F9280912B078F5FB9
:101D700080932B078091E8069091E906009709F07F
:101D800042C0D093E906C093E80680912B078130CA
:101D900009F048C0EE24FF24C701880F991F880F5F
:101DA000991F880F991F8E0D9F1D8051994F0E947A
:101DB0006A050894E11CF11CF5E0EF16F10461F7E7
:101DC0000F2EF9E3EF2EF7E0FF2EF02DC7010E9452
:101DD0006A050F2EF2E4AF2EF7E0BF2EF02DC501FD
:101DE0000E946A058DE197E00E946A058EE297E005
:101DF0000E946A05F0922907E0922807B09227070F
:101E0000A09226070FC080912C07882359F4E091F7
:101E1000E806F091E9068689081720F0D093E906D4
:101E2000C093E8068E8990913807981710F4809334
:101E30003807909137079F5F909337079091EF068F
:101E4000981710F48093EF0690E09C01220F331F47
:101E5000220F331F220F331F820F931F8051994F80
:101E6000B6010E947C050F900FBE80912C0788233D
:101E700069F0E091E806F091E9068689801740F460
:101E80000E94890681E005C08FEF03C081E001C098
:101E900081E0DF91CF911F910F91FF90EF90DF9044
:101EA000CF90BF90AF909F908F907F906F905F90FA
:101EB0004F903F902F900895D88ECF8A13CFEF92F6
:101EC000FF920F931F93CF93DF93EC010FB6F8941B
:101ED0000F928091E8069091E906C817D90719F08A
:101EE000209741F402C0C0E0D0E00091E8061091D4
:101EF000E90601C08E01EE24FF246894E1F8E00EAB
:101F0000F11EC7010E94E205F801848995890097B6
:101F100021F0C8010C960E94E2058EE297E0B7011D
:101F20000E947C0580912D078F5F80932D07809103
:101F300037078F5F809337070F900FBE80912C0774
:101F4000882321F0209711F40E948906DF91CF9118
:101F50001F910F91FF90EF900895AF92BF92CF9293
:101F6000DF92EF92FF920F9380E591E160ED70E0D8
:101F700045E550E020E030E000E0EE24FF24CC24F2
:101F8000DD24AA24BB240E943D0E813049F4F8943C
:101F900080932C071092ED061092EC060E945306D7
:101FA0000F91FF90EF90DF90CF90BF90AF9008958A
:101FB000F89410922C070E94880608958091EE06EE
:101FC0008F5F8093EE0608950FB6F8940F922091DC
:101FD000EC063091ED060F900FBE822F932F0895DF
:101FE0002091EC063091ED06822F932F0895809179
:101FF0002B0708950F931F93CF93DF938091EE06E5
:10200000882309F0B3C08091EC069091ED0601960B
:102010009093ED068093EC068091EC069091ED068E
:10202000009799F58091280790912907209126071C
:10203000309127073093290720932807909327078B
:10204000809326078091EB068F5F8093EB06E091EB
:102050002807F09129078081882339F48FEF9FEFBB
:102060009093D6008093D50010C0E0912807F0919E
:1020700029070580F681E02D0680F781E02D828119
:1020800093819093D6008093D5002091EC063091F7
:10209000ED068091D5009091D6002817390708F4F5
:1020A0006AC0E0912807F09129078081882399F080
:1020B000E0912807F09129070580F681E02DC6817F
:1020C000D7818A819B812091EC063091ED062817FB
:1020D0003907F8F419C08FEF9FEF9093D6008093E3
:1020E000D50049C0E0912807F09129070580F681C5
:1020F000E02DC681D7818A819B812091EC063091A9
:10210000ED062817390728F49093D6008093D50060
:1021100032C08E010E5F1F4FC8010E94E2058C89FC
:102120009D89009721F0CE010C960E94E2058E89D0
:102130009091EF06981710F48093EF0690E09C01C1
:10214000220F331F220F331F220F331F820F931FC3
:102150008051994FB8010E947C05E0912807F091C9
:1021600029078081882309F0BDCFB5CF80912A0748
:102170008F5F80932A07DF91CF911F910F91089570
:10218000AF92BF92CF92DF92EF92FF920F931F9385
:10219000CF93DF930FB6F8940F928091EE068150A3
:1021A0008093EE068091EE06882309F069C0809145
:1021B0002B07882381F567C0D601ED91FC91C6817C
:1021C000D781CE010C960E94E2058E010E5F1F4F53
:1021D000C8010E94E2058E899091EF06981710F4CD
:1021E0008093EF0690E09C01220F331F220F331FD4
:1021F000220F331F820F931F8051994FB8010E9405
:102200007C05E091E806F091E9069E898689981799
:1022100088F0BA2C0FC0BB240F2EFDE1EF2EF7E0A3
:10222000FF2EF02D0F2EF2E2CF2EF7E0DF2EF02D55
:10223000AA24A394F7018081882309F0BDCF80915F
:102240002A07882381F080912A07882399F00E9429
:10225000FA0F80912A07815080932A0780912A07DC
:102260008823A9F707C0FB2DF13021F08091EA0601
:10227000813041F41092EA060E94890681E003C091
:1022800080E001C080E00F900FBEDF91CF911F91E1
:102290000F91FF90EF90DF90CF90BF90AF90089597
:1022A000CF92DF92FF920F931F93CF93DF930EE2B3
:1022B00017E00F2EF3E3CF2EF7E0DF2EF02D809105
:1022C0002D07882339F10E94DE0FD801FC900E946F
:1022D000C010FF20F9F00FB6F8940F92D601ED91DF
:1022E000FC91C681D781CE0102960E94E2058091C1
:1022F0002B07815080932B0780912D07815080936D
:102300002D070F900FBE8F89988D0E940304CE0178
:102310000E9403040E94100CD2CF0F931F93CF93FF
:10232000DF93EC010097B1F00E94DE0F0091EC0604
:102330001091ED068091E8069091E90602960E94C0
:10234000E205CE01800F911F0E94060E0E94C01070
:10235000882311F40E948906DF91CF911F910F917C
:1023600008950F931F93CF93DF938C01EB010E948D
:10237000DE0FF80180819181C80FD91F2091EC06F2
:102380003091ED062817390768F4C817D90750F5BA
:102390008091EC069091ED06D183C0838C179D0748
:1023A000B0F40BC0C817D907C8F08091EC06909123
:1023B000ED068C179D0790F015C08091E80690916E
:1023C000E90602960E94E205CE010E94060E0E94D6
:1023D000C010882359F40E94890608C0F801D183EF
:1023E000C083EBCFF801D183C083F1CFDF91CF91D0
:1023F0001F910F9108958091EE06882399F48091A2
:10240000EF0690E0FC01EE0FFF1FEE0FFF1FEE0F37
:10241000FF1F8E0F9F1FFC01E051F94F8081882321
:1024200029F01DC081E08093EA06089520EF36E090
:102430008091EF0681508093EF068091EF0690E047
:10244000FC01EE0FFF1FEE0FFF1FEE0FFF1F8E0FA1
:102450009F1FF901E80FF91F8081882349F38091BC
:10246000EF0690E09C01220F331F220F331F220F33
:10247000331F280F391FD901A051B94F1196ED9183
:10248000FC9112970280F381E02D1296FC93EE935B
:1024900011972D50394FE217F30729F42281338128
:1024A000FD0132832183FC01EE0FFF1FEE0FFF1FA2
:1024B000EE0FFF1F8E0F9F1FFC01E051F94F0180AF
:1024C000F281E02D868197819093E9068093E8065A
:1024D0000895CF93DF93EB016091E8067091E906D0
:1024E000645F7F4F0E94A3058091E8069091E90602
:1024F00002960E94E2058091EC069091ED068C0F09
:102500009D1F0E94060EDF91CF9108950F931F9398
:10251000CF93DF93DC011596ED91FC911697C68160
:10252000D7818E01045F1F4FC8010E94E205809190
:10253000EE068823E9F48E010E5F1F4FC8010E944A
:10254000E2058E899091EF06981710F48093EF06BC
:1025500090E09C01220F331F220F331F220F331FE5
:10256000820F931F8051994FB8010E947C0505C0CE
:102570008DE197E0B8010E947C05E091E806F091BA
:10258000E90681E02E899689291708F480E0DF9119
:10259000CF911F910F910895FC018091EB068083EC
:1025A0008091EC069091ED06928381830895FC0161
:1025B0000FB6F8940F928091EB069081981749F02E
:1025C0008091EC069091ED0621813281821793076C
:1025D000F0F44091EC065091ED0621813281DB014F
:1025E0008D919C911197421B530B4817590788F402
:1025F0004091EC065091ED06241B350B820F931F82
:102600008D939C93CF010E94CC1280E003C081E0A7
:1026100001C081E00F900FBE089581E08093EA062B
:1026200008955058BB27AA270ED0E5C0D6D030F069
:10263000DBD020F031F49F3F11F41EF4CBC00EF438
:10264000E095E7FBC1C0E92FE7D080F3BA17620736
:1026500073078407950718F071F49EF5FFC00EF418
:10266000E0950B2EBA2FA02D0B01B90190010C01A2
:10267000CA01A0011124FF27591B99F0593F50F4BA
:10268000503E68F11A16F040A22F232F342F442712
:10269000585FF3CF469537952795A795F04053950A
:1026A000C9F77EF41F16BA0B620B730B840BBAF0DA
:1026B0009150A1F0FF0FBB1F661F771F881FC2F745
:1026C0000EC0BA0F621F731F841F48F48795779559
:1026D0006795B795F7959E3F08F0B3CF9395880F10
:1026E00008F09927EE0F97958795089504D0689480
:1026F000B111B5C0089598D088F09F5790F0B92FC8
:102700009927B751A0F0D1F0660F771F881F991F46
:102710001AF0BA95C9F712C0B13081F09FD0B1E07C
:1027200008959CC0672F782F8827B85F39F0B93F8C
:10273000CCF3869577956795B395D9F73EF4909548
:102740008095709561957F4F8F4F9F4F0895E894C6
:1027500009C097FB3EF490958095709561957F4FE9
:102760008F4F9F4F9923A9F0F92F96E9BB27939597
:10277000F695879577956795B795F111F8CFFAF4A7
:10278000BB0F11F460FF1BC06F5F7F4F8F4F9F4FD8
:1027900016C0882311F096E911C0772321F09EE836
:1027A000872F762F05C0662371F096E8862F70E09C
:1027B00060E02AF09A95660F771F881FDAF7880F76
:1027C0009695879597F9089597F99F6780E870E047
:1027D00060E008959FEF80EC089500240A94161697
:1027E000170618060906089500240A9412161306FF
:1027F000140605060895092E0394000C11F488238D
:1028000052F0BB0F40F4BF2B11F460FF04C06F5FA8
:102810007F4F8F4F9F4F089557FD9058440F551F7E
:1028200059F05F3F71F04795880F97FB991F61F052
:102830009F3F79F087950895121613061406551FC9
:10284000F2CF4695F1DF08C0161617061806991F35
:10285000F1CF86957105610508940895E894BB272A
:1028600066277727CB0197F908950BD0C4CFB5DF42
:1028700028F0BADF18F0952309F0A6CFABCF1124CA
:10288000EECFCADFA0F3959FD1F3950F50E0551F0F
:10289000629FF001729FBB27F00DB11D639FAA27B5
:1028A000F00DB11DAA1F649F6627B00DA11D661F04
:1028B000829F2227B00DA11D621F739FB00DA11D25
:1028C000621F839FA00D611D221F749F3327A00DDF
:1028D000611D231F849F600D211D822F762F6A2F7B
:1028E00011249F5750408AF0E1F088234AF0EE0F00
:1028F000FF1FBB1F661F771F881F91505040A9F70D
:102900009E3F510570F060CFAACF5F3FECF3983E39
:10291000DCF3869577956795B795F795E7959F5F73
:10292000C1F7FE2B880F911D9695879597F908950D
:10293000FA01EE0FFF1F30962105310599F161155F
:10294000710561F48038BFE39B0749F168949038C2
:10295000810561F08038BFEF9B0741F0992342F574
:10296000FF3FE1053105210511F1E8940894E79551
:10297000D901AA2329F4AB2FBE2FF85FD0F310C0E2
:10298000FF5F70F4A695E0F7F73950F019F0FF3AC1
:1029900038F49F779F930CD00F9007FC90580895C0
:1029A0003EF018CF60E070E080E89FE308954FE7C5
:1029B0009F775F934F933F932F939ED02F913F919B
:1029C0004F915F9152DF05C019F40EF0FDCE46CF56
:1029D00001CF2ADFC8F39638C0F707F80F92E894C2
:1029E0002BE33AEA48EB5FE74EDF0F920F920F922C
:1029F0004DB75EB70F92C0D0E4E5F0E016D04F912E
:102A00005F91EF91FF91E595EE1FFF1F49F0FE5793
:102A1000E0684427EE0F441FFA95E1F74195550B06
:102A200032D00F9007FE26C00895DF93CF931F93F7
:102A30000F93FF92EF92DF927B018C01689405C0A7
:102A4000DA2EEF011EDFFE01E894A5912591359164
:102A500045915591AEF3EF01F6DDFE019701A80116
:102A6000DA9479F7DF90EF90FF900F911F91CF915B
:102A7000DF9108959B01AC0160E070E080E89FE386
:102A8000AEC0A2CE14C1D0DEE8F39923D9F3940FDF
:102A9000511DBBF39150504094F059F0882332F00F
:102AA000660F771F881F91505040C1F79E3F510518
:102AB00044F7880F911D9695879597F908955F3F84
:102AC000ACF0983E9CF0BB27869577956795B795B7
:102AD00008F4B1609395C1F7BB0F58F711F460FF8C
:102AE000E8CF6F5F7F4F8F4F9F4FE3CFB8CE0EF091
:102AF000DEC070CE689468CE97DEC8F39923D1F318
:102B0000C6F3DF93CF931F930F93FF92C92FDD2757
:102B100088232AF02197660F771F881FDAF720E0B5
:102B200030E040E85FEB9FE3883920F0803E30F0F2
:102B300021968F7777DDECE7F0E003C073DDE9EAFB
:102B4000F0E073DF8B01BE01EC01FB2E6F577109C2
:102B50007595771F880B990BFCDD28E132E741E37F
:102B60005FE38FDEAF2D9801AE01FF900F911F91B3
:102B7000CF91DF9168DD3FCEFA01DC01AA0FBB1FC8
:102B80009B01AC01BF5728F42227332744275078F4
:102B90001FC0B75188F4AB2F002446953795279571
:102BA000011CA395D2F3002069F0220F331F441FAC
:102BB000B395DAF30DD035CD61307105A0E88A0701
:102BC000B94630F49B01AC016627772788279078B7
:102BD000309621F0208331834283538308950CD0B3
:102BE0000ACE02DE40F0F9DD30F021F45F3F19F04B
:102BF000EBCD511134CEEECD0FDE98F39923C9F30E
:102C00005523B1F3951B550BBB27AA2762177307F2
:102C1000840738F09F5F5F4F220F331F441FAA1FA6
:102C2000A9F333D00E2E3AF0E0E830D09150504066
:102C3000E695001CCAF729D0FE2F27D0660F771F14
:102C4000881FBB1F261737074807AB07B0E809F0F6
:102C5000BB0B802DBF01FF2793585F4F2AF09E3F8B
:102C6000510568F0B1CDFBCD5F3FECF3983EDCF34E
:102C7000869577956795B795F7959F5FC9F7880F04
:102C8000911D9695879597F90895E1E0660F771F56
:102C9000881FBB1F621773078407BA0720F0621BE7
:102CA000730B840BBA0BEE1F88F7E09508959F3FD6
:102CB00031F0915020F4879577956795B795880FF7
:102CC000911D9695879597F9089597FB092E0726EC
:102CD0000AD077FD04D00CD006D000201AF47095ED
:102CE00061957F4F0895F6F7909581959F4F0895D0
:102CF000AA1BBB1B51E107C0AA1FBB1FA617B70722
:102D000010F0A61BB70B881F991F5A95A9F780953D
:102D10009095BC01CD010895FB01DC0102C001903A
:102D20000D9241505040D8F70895DC0101C06D93D9
:102D300041505040E0F70895FB01DC014150504004
:102D400048F001900D920020C9F701C01D9241503A
:0A2D50005040E0F70895F894FFCF1B
:102D5A00507265737320616E79206B657900746FA8
:102D6A0020636F6E74696E75650057656C636F6D6D
:102D7A0065004E4F20507265737365640054617329
:102D8A006B5F4E616D65005461736B315F4E616DAF
:102D9A0065005461736B325F4E616D6500546173F7
:102DAA006B335F4E616D65005461736B345F4E61C6
:102DBA006D65005461736B355F4E616D6500FF018F
:082DCA0049444C4500FFFF00E5
:00000001FF
